:1000000072C000009EC000009CC000009AC00000AA
:1000100098C0000096C0000094C0000092C000008C
:1000200090C000008EC000008CC000008AC000009C
:1000300088C0000086C0000084C0000082C00000AC
:1000400080C000007EC000007CC000007AC00000BC
:1000500078C0000076C0000074C0000041C20000FB
:1000600070C00000B0C2000085C200006AC000007D
:1000700068C0000066C0000064C0000062C00000EC
:1000800060C000005EC000005CC000005AC00000FC
:1000900058C0000056C0000054C0000052C000000C
:1000A00050C000004EC000004CC000004AC000001C
:1000B00048C0000046C0000044C0000042C000002C
:1000C00040C000003EC000003CC000003AC000003C
:1000D00038C0000036C0000034C0000032C000004C
:1000E00030C000005C0411241FBECFEFD1E2DEBFA0
:1000F000CDBF00E00CBF12E0A0E0B2E0E2E8FDE01E
:1001000000E00BBF02C007900D92A035B107D9F7F0
:1001100022E0A0E5B2E001C01D92AA3FB207E1F7DC
:1001200010E0C3E7D0E000E005C021970109802F6F
:10013000FE01EFD3C237D10780E00807B1F779D2CB
:100140001EC65ECF2FB7F89480915502909156024B
:10015000A0915702B09158022FBF809361029093F3
:100160006202A0936302B093640224C02FB7F89494
:100170008091550290915602A0915702B091580279
:100180002FBF4091610250916202609163027091B1
:100190006402841B950BA60BB70B40915D02509136
:1001A0005E0260915F027091600284179507A60756
:1001B000B70768F4E0915902F0915A020284F3857E
:1001C000E02D89E592E0199597FDD0CF08958FEF46
:1001D0009FEF0895CF92DF92EF92FF920F931F93BC
:1001E000CF93DF934115510509F16A018C017B0121
:1001F000C0E0D0E004C02196CC16DD0669F0D7013E
:100200006D917D01D801ED91FC910190F081E02D7F
:10021000C8011995892B79F7CE01DF91CF911F91F4
:100220000F91FF90EF90DF90CF900895C0E0D0E065
:10023000F3CF089580E090E00895FC01238D348D84
:10024000231730F4832F90E0821B910901970895C2
:100250008FE390E0821B9109830F911D0895FC01AB
:10026000918D828D981761F0828DDF01A80FB11DED
:100270005D968C91928D9F5F9F73928F90E0089511
:100280008FEF9FEF0895FC01918D828D981731F0CB
:10029000828DE80FF11D858D90E008958FEF9FEF1F
:1002A0000895FC01918D228D892F90E0805C9F4FF5
:1002B000821B91098F739927089589E592E0F1DFF8
:1002C00021E0892B09F420E0822F0895FC01848D20
:1002D000DF01A80FB11DA35ABF4F2C91848D90E070
:1002E00001968F739927848FA689B7892C93A0894B
:1002F000B1898C9180648C93938D848D981308952B
:100300000288F389E02D80818F7D80830895EF92AC
:10031000FF920F931F93CF93DF93EC0181E0888FBF
:100320009B8D8C8D981779F1062FEB8CF12C8FEF2C
:10033000E81AF80A8FE3E822FF241E2D03C00FB647
:1003400007FE19C09C8D1917D1F38B8DFE01E80FA4
:10035000F11DE35AFF4F0083EB8EEA89FB89808110
:100360008062808381E090E0DF91CF911F910F91B7
:10037000FF90EF900895E889F989808185FFE2CFA9
:10038000CE01A4DFDFCFE889F989808185FFCCCF5A
:10039000EE89FF896083E889F989808180648083A0
:1003A000E1CFCF93DF93EC01888D8823B1F0EA8908
:1003B000FB89A889B989908195FF0CC00FB607FC0D
:1003C000FACF908195FFF7CF8C9185FFF4CFCE01C6
:1003D0007DDFEDCF8C9186FFF1CFDF91CF91089536
:1003E00080E090E0892B19F068DF81112EC080E059
:1003F00090E0892B41F080E090E0892B21F00E9471
:10040000000081111FC080E090E0892B41F080E066
:1004100090E0892B21F00E940000811110C080E043
:1004200090E0892B51F080E090E0892B31F00E9420
:100430000000882319F00C940000089508950E948C
:100440000000EDCF0E940000DECF0E940000CFCF61
:10045000CF93DF930097C9F0FC0101900020E9F7EA
:100460003197AF01481B590BBC0189E592E0B2DE20
:10047000EC0142E050E068E172E089E592E0AADE3A
:100480008C0F9D1FDF91CF910895C0E0D0E0F1CF98
:1004900059D40F931F93CF93DF93FC0180819181F7
:1004A000009729F0228133812617370788F48B01C2
:1004B000EF016F5F7F4F62D3009781F0998388834C
:1004C0001B830A832C813D81232B11F4FC011082B4
:1004D00081E0DF91CF911F910F91089580E0F9CFD6
:1004E0001F920F920FB60F9211242F933F938F9369
:1004F0009F93AF93BF938091550290915602A09124
:100500005702B09158023091540223E0230F2D3747
:1005100068F126E8230F0296A11DB11D2093540215
:100520008093550290935602A0935702B0935802BD
:100530008091500290915102A0915202B0915302C9
:100540000196A11DB11D8093500290935102A0937A
:100550005202B0935302BF91AF919F918F913F91FF
:100560002F910F900FBE0F901F9018950196A11D0F
:10057000B11DD4CF1F920F920FB60F9211240BB65C
:100580000F922F933F934F935F936F937F938F932C
:100590009F93AF93BF93EF93FF9389E592E096DE2D
:1005A000FF91EF91BF91AF919F918F917F916F914B
:1005B0005F914F913F912F910F900BBE0F900FBE07
:1005C0000F901F9018951F920F920FB60F92112443
:1005D0000BB60F922F938F939F93EF93FF93E0911E
:1005E0006902F0916A028081E0916F02F0917002DD
:1005F00082FD1DC02081809172028F5F8F73909168
:100600007302891741F0E0917202F0E0E75AFD4F62
:10061000258F80937202FF91EF919F918F912F917F
:100620000F900BBE0F900FBE0F901F9018958081FA
:10063000F2CFCF93DF93CDB7DEB72A970FB6F894FA
:10064000DEBF0FBECDBF789484B5826084BD84B513
:10065000816084BD85B5826085BD85B5816085BDBD
:1006600080916E00816080936E0010928100809175
:1006700081008260809381008091810081608093FD
:100680008100809180008160809380008091B10022
:1006900084608093B1008091B00081608093B0004D
:1006A000809191008260809391008091910081609F
:1006B0008093910080919000816080939000809160
:1006C000A10082608093A1008091A100816080934D
:1006D000A1008091A00081608093A0008091210101
:1006E00082608093210180912101816080932101AA
:1006F0008091200181608093200180917A00846044
:1007000080937A0080917A00826080937A00809151
:100710007A00816080937A0080917A00806880936B
:100720007A001092C100E0916902F0916A0282E0C1
:100730008083E0916502F09166021082E091670289
:10074000F09168028FEC808310927102E0916D024B
:10075000F0916E0286E08083E0916B02F0916C0272
:10076000808180618083E0916B02F0916C028081D6
:1007700088608083E0916B02F0916C0280818068D8
:100780008083E0916B02F0916C0280818F7D808389
:1007900085E090E0A0E0B0E080935D0290935E027F
:1007A000A0935F02B093600280E4982E92EEA92E8F
:1007B000BB24B39424EAC22E20E7D22E25E4E22EF5
:1007C00021E4F22E01C00CDE89E592E06ADD892B7E
:1007D000D1F31A8219821C821B821E821D8260E064
:1007E00070E0CE01019655DE811155C089819A8154
:1007F000009709F02BD11A8219821E821D821C8259
:100800001B82A0DC97FD1BC08F8318860D811E8183
:100810000F5F1F4FB801CE0101963BDE882389F39D
:1008200029813A818D819E81BE01695F7F4F820F50
:10083000931F9ED21E830D8385DC97FFE5CF8D81AC
:100840009E81892B29F109811A816BE172E0C8012F
:1008500086D2892B31F5CF82D886E986FA8644E0A4
:1008600050E0BE01695F7F4F89E592E0B3DC09810A
:100870001A81C801EBD0A7CF65E272E0C8016FD240
:10088000892BB9F78BE292E0E3DD8BE392E0E0DDC8
:1008900009811A81EECF1E821D82E981FA811082C0
:1008A000B0CF61E272E0C8015AD2892B29F79F824A
:1008B000A886B9861A86D3CFE9E5F2E013821282C0
:1008C00088EE93E0A0E0B0E084839583A683B783AD
:1008D0008AE092E09183808385EC90E0958784871D
:1008E00084EC90E09787868780EC90E0918B808BFA
:1008F00081EC90E0938B828B82EC90E0958B848BE3
:1009000086EC90E0978B868B118E128E138E148E50
:100910000895EE0FFF1F881F8BBF0790F691E02D03
:100920001994CF93DF938230910510F482E090E028
:10093000E091F802F091F90220E030E0C0E0D0E070
:10094000309711F14081518148175907C0F048177D
:10095000590761F482819381209719F09B838A83E0
:100960002BC09093F9028093F80226C0211531051F
:1009700019F04217530718F49A01BE01DF01EF0185
:100980000280F381E02DDCCF2115310509F1281B10
:10099000390B2430310590F412968D919C91139768
:1009A0006115710521F0FB019383828304C090934C
:1009B000F9028093F802FD01329644C0FD01E20F76
:1009C000F31F81939193225031092D933C933AC0A8
:1009D0002091F6023091F702232B41F4209102027C
:1009E000309103023093F7022093F6022091000227
:1009F000309101022115310541F42DB73EB74091E8
:100A0000040250910502241B350BE091F602F0918F
:100A1000F702E217F307A0F42E1B3F0B2817390744
:100A200078F0AC014E5F5F4F2417350748F04E0F4A
:100A30005F1F5093F7024093F6028193919302C097
:100A4000E0E0F0E0CF01DF91CF9108950F931F9385
:100A5000CF93DF93009709F48CC0FC013297138287
:100A600012820091F8021091F9020115110581F42A
:100A700020813181820F931F2091F6023091F7027D
:100A80002817390779F5F093F702E093F60271C061
:100A9000D80140E050E0AE17BF0750F412962D91F8
:100AA0003C911397AD012115310509F1D901F3CF1F
:100AB0009D01DA013383228360817181860F971F44
:100AC0008217930769F4EC0128813981260F371FBB
:100AD0002E5F3F4F318320838A819B819383828362
:100AE000452B29F4F093F902E093F80242C01396E3
:100AF000FC93EE931297ED01499159919E01240FB9
:100B0000351FE217F30771F480819181840F951FDF
:100B1000029611969C938E938281938113969C9357
:100B20008E931297E0E0F0E0D80112968D919C919F
:100B30001397009719F0F8018C01F6CF8D919C91D5
:100B400098012E5F3F4F820F931F2091F602309144
:100B5000F7022817390769F4309729F41092F9023F
:100B60001092F80202C0138212821093F7020093CF
:100B7000F602DF91CF911F910F9108956F927F92AE
:100B80008F929F92AF92BF92CF92DF92EF92FF929D
:100B90000F931F93CF93DF93EC01009781F4CB0168
:100BA000DF91CF911F910F91FF90EF90DF90CF9049
:100BB000BF90AF909F908F907F906F90B2CEFC01CE
:100BC000E60FF71F9C0122503109E217F30708F4E2
:100BD000A8C0D9010D911C91119706171707A8F00D
:100BE0000530110508F49BC0C801049786179707C4
:100BF00008F495C002501109061B170B01931193BD
:100C00006D937C93CF0122DF8AC05B01A01AB10AE9
:100C10004C01800E911EA091F802B091F90240E0C3
:100C200050E0E12CF12C109709F44AC0A815B90541
:100C3000D1F56D907C901197630182E0C80ED11CB4
:100C4000CA14DB0480F1A3014A195B096A0182E03E
:100C5000C80ED11C1296BC9012971396AC91B5E0B9
:100C6000CB16D10440F0B282A38351834083D901D3
:100C70006D937C930AC00E5F1F4FC301800F911FBD
:100C8000F90191838083EB2DFA2FE114F10431F007
:100C9000D7011396FC93EE93129741C0F093F9029B
:100CA000E093F8023CC08D919C9111974817590729
:100CB00008F4AC017D0112960D90BC91A02DB3CF2C
:100CC0008091F6029091F70288159905E1F4461794
:100CD0005707C8F48091000290910102009741F4F7
:100CE0008DB79EB74091040250910502841B950B6D
:100CF000E817F907B0F4F093F702E093F602F90170
:100D0000718360830CC0CB010CDE7C01009749F03D
:100D1000A801BE011BD0CE0199DEC70104C0CE01DF
:100D200002C080E090E0DF91CF911F910F91FF9082
:100D3000EF90DF90CF90BF90AF909F908F907F907B
:100D40006F90089581E090E0F89419C0FB01DC01F8
:100D500002C001900D9241505040D8F70895FB0118
:100D6000DC018D91019080190110D9F3990B089540
:100D7000FB01DC0101900D920020E1F70895F89449
:020D8000FFCFA3
:100D82000000FA028000000000008701EA001D0155
:100D9200D10151012F0143010D0A00666C6F61748C
:100DA20000696E74006C696E657300546869732023
:100DB20069732061206C696E652E00546869732026
:100DC200697320616E6F74686572206C696E65006C
:00000001FF
